:020000040800F2
:10000000F01B0020D10100083D2F0008C12E000880
:10001000392F00082D040008C54F0008000000001B
:10002000000000000000000000000000E12F0008B8
:10003000FD04000800000000412F0008E52F000823
:10004000EB010008EB010008EB010008EB010008E0
:10005000EB010008EB010008EB010008EB010008D0
:10006000EB010008EB010008EB010008EB010008C0
:10007000EB010008EB010008EB010008EB010008B0
:10008000EB010008EB010008EB010008EB010008A0
:10009000794E0008EB010008EB010008EB010008B5
:1000A00000000000EB010008EB010008EB01000874
:1000B000EB010008EB010008EB010008EB01000870
:1000C000EB010008EB010008EB010008EB01000860
:1000D000EB010008EB010008EB0100088132000889
:1000E000EB010008EB010008EB010008EB01000840
:1000F000EB01000800F002F800F05AF80AA090E8BE
:10010000000C82448344AAF10107DA4501D100F0D2
:100110004FF8AFF2090EBAE80F0013F0010F18BF45
:10012000FB1A43F001031847D8500000F8500000B4
:100130000A444FF0000C10F8013B13F0070408BF0D
:1001400010F8014B1D1108BF10F8015B641E05D0AB
:1001500010F8016B641E01F8016BF9D113F0080F60
:100160001EBF10F8014BAD1C0C1B09D16D1E58BFF2
:1001700001F801CBFAD505E014F8016B01F8016B29
:100180006D1EF9D59142D6D370470000002300249C
:1001900000250026103A28BF78C1FBD8520728BF97
:1001A00030C148BF0B6070471FB51FBD10B510BDF3
:1001B00000F001F91146FFF7F7FF04F005FF00F02A
:1001C0001FF903B4FFF7F2FF03BC00F027F90000AA
:1001D0000948804709480047FEE7FEE7FEE7FEE7DB
:1001E000FEE7FEE7FEE7FEE7FEE7FEE70448054917
:1001F000054A064B7047000089300008F5000008EA
:10020000F0150020F01B0020F0170020F017002050
:1002100053EA020C00F069802DE9F04B4FF0000624
:10022000002B1FBFB3FA83F503FA05F424FA05F691
:100230005E4012BF1643B2FA82F502FA05F4C5F128
:1002400020051EBF22FA05FC44EA0C04203556EABC
:10025000044C4FEA144418BF641C4FF000084FF0E0
:100260000009904271EB030C39D3002919BFB1FA90
:1002700081F701FA07F6B0FA80F700FA07F6C7F13E
:1002800020071EBF20FA07FC46EA0C062037B6FB03
:10029000F4FCA7EB0507103F07F01F0BCBF120067E
:1002A0002CFA06F60CFA0BFB44BFB3460026202FAF
:1002B000A4BF5E464FF0000B5BEA060C08BF4FF090
:1002C000010B19EB0B0948EB0608ABFB027C06FBA4
:1002D00002CC0BFB03CCC01B71EB0C01C1E70B463E
:1002E000024641464846BDE8F08B13B5084318BFA7
:1002F0004FF0FF300146AFF30080BDE81C4070476F
:1003000030B505460B462A4613F8014B12F8010B8F
:1003100008B1A042F8D01CB1002802D06D1CF1E752
:10032000284630BD10B5431C02E010F8011B71B126
:100330008107FAD14FF0013202C88C1A8C4314EABB
:10034000C211F9D0C01A0A0603D0C01E10BDC01ACF
:1003500010BD0A0401D0801E10BD0902FCD0401E51
:1003600010BD4FF0000200B5134694469646203962
:1003700022BFA0E80C50A0E80C50B1F12001BFF45E
:10038000F7AF090728BFA0E80C5048BF0CC05DF8C4
:1003900004EB890028BF40F8042B08BF704748BF12
:1003A00020F8022B11F0804F18BF00F8012B704786
:1003B000704770477047754600F02CF8AE46050050
:1003C0006946534620F00700854618B020B5FFF770
:1003D0000DFFBDE820404FF000064FF000074FF042
:1003E00000084FF0000BAC46ACE8C009ACE8C0090F
:1003F000ACE8C009ACE8C00921F007018D467047A0
:1004000010B50446AFF300802046BDE81040FFF76A
:10041000D8BE000000487047800100200149182024
:10042000ABBEFEE72600020070470000FEE70000BA
:10043000002070470020704710B541F26004C2F2FE
:10044000000440F66041C2F200012046002203F0A1
:1004500019F840F66001C2F20001204603F00CF8E2
:10046000002010BD10B541F26004C2F20004014644
:10047000204603F001F8204602F0E0FF40F660005D
:10048000C2F20000FFF74EFFD4F89012D1F8141218
:1004900071B941F26004C2F2000440F6600182B218
:1004A000C2F20001204602F0EDFF204603F06EF894
:1004B00040F66000C2F200004FF48061FFF751FF88
:1004C000002010BD10B541F26002C2F20002D2F865
:1004D0009022D2F81432002B1CBF012010BD41F233
:1004E0006004C2F200040A460146204602F0CAFF38
:1004F0002046BDE8104003F049B8000070470000F6
:10050000EFF3108072B600BFFEE70000014690F8DE
:100510002100022818D10868D1E90FC3026822F02F
:100520000E020260026822F00102026003F01C0069
:10053000012202FA00F0CCF80400002081F821200A
:10054000002281F8202070470420886301200022C7
:1005500081F820207047000080B590F82110022912
:1005600022D10168D0F834E0D0E90FC30A68BEF1A7
:10057000000F22F00E020A600A6822F001020A60EF
:1005800003F01C014FF0010202FA01F1CCF8041053
:100590004FF0000180F8212080F8201001D0F047B2
:1005A0000021084680BD00BF04218163012080BD79
:1005B000B0B5044600F0E8F8054640F20000C2F28B
:1005C00000004068611C18BF044400BF00F0DCF864
:1005D000401BA042FAD3B0BD2DE9F04F82B00D68A8
:1005E000002D00F0C78000F13E4741F2000407F102
:1005F000FF77C4F20204052240F2004E4FEAB7260C
:10060000A04208BF0422C4F2010E042E38BF4FEAF4
:10061000B722002401274FF0000C0026009209E0C9
:100620000D68013635FA06F20CF1040C04F10204EF
:1006300000F0A08007FA06FB15EA0B08F0D0D1F80D
:1006400004A003230AF003056A1EA340012A6FEAEF
:1006500003090FD88268CB6802EA0902A3401A4353
:1006600082604268CAF3001322EA0B02B3401A43C5
:10067000426003E0032D01D103251FE0C2688B68AF
:1006800002EA0902A3401A43022DC26016D16FF09C
:10069000030202EA560202440CF01C050F23D2F8B2
:1006A00020A003FA05FB0B692AEA0B0AAB4043EAD8
:1006B0000A031362D1F804A00AF00305026805FAE0
:1006C00004F302EA09021A431AF4403F0260A7D079
:1006D00043F62003C4F202031A684FF6084A42F0B8
:1006E00001021A601A68CFF6FF7A02F00102019245
:1006F000019A26F00302724452F80A900CF00C059D
:100700000F23009FAB4029EA030307FA05F52B43AB
:1007100042F80A30DEF808904B6849EA0805DA0228
:1007200058BF29EA080540F20C49CEF80850C4F237
:100730000109D9F800209F0242EA080558BF22EAC1
:100740000805C9F80050DEF804209F0342EA0805B6
:1007500058BF22EA0805CEF80450DEF80020012731
:1007600042EA0805DB0358BF22EA0805CEF800502C
:1007700056E700BF02B0BDE8F08F0000002A08BFB6
:10078000090481617047000041F2E850C2F20000A4
:100790000068704740F2000041F2E851C2F20000E8
:1007A000C2F2000140680A68104408607047000007
:1007B00080B5032000F098F80F2000F009F8002819
:1007C0001CBF012080BD00F029F8002080BD000082
:1007D00070B540F20006C2F200067168E1B104464D
:1007E00040F22400C2F200004FF47A720068B2FBBB
:1007F000F1F1B0FBF1F001F015FE0F2C4FF0010507
:1008000008D838B94FF0FF3021460022002500F00B
:100810003FF83460284670BD012070BD83B043F6B8
:100820002400C4F20200016841F000410160016847
:1008300001F000410291029950F8041C41F00101BD
:1008400040F8041C50F8041C01F0010101910199C9
:10085000016841F080510160006800F08050009014
:10086000009803B070470000002848BF7047C1B22D
:1008700000F01F00012202FA00F04EF20012CEF248
:10088000000242EAD10121F0030108607047000034
:1008900010B54EF60C5CCEF2000CDCF80030C3F361
:1008A000022E8EF00704042C28BF0424BEF103039B
:1008B0004FF0FF3E0EFA04F438BF0023A1439940E5
:1008C0000EFA03F39A43114300F00F0200F1604364
:1008D0000901043A03F564436244002848BF02F169
:1008E0000C03197010BD00004EF60C51CEF2000141
:1008F0000A684FF6FF031A4060F30A2242F0806054
:1009000040F0FD700860704780B501F0070C0CEBFB
:100910008C0C00EBCC0C01EB810E0CF1280C00EBE5
:10092000CE00090658BF00F5B47C0020002A19BF8C
:10093000CCF808300121ACF8063000218CF80C10FE
:1009400080BD00000420C4F201000268012922F0E9
:10095000010208BF013202607047000001EB810212
:10096000D0F8E83200EBC200C26B184602F09CBF20
:1009700001EB8102D0F8E83200EBC200D0F87C2114
:10098000184602F0F3BF000010B5044648B2B0F1BB
:10099000FF3F01F0070000EB800104EBC10205DD21
:1009A00002F5B471002382F8693104E0012302F1F9
:1009B000280182F8293094F8A8220870012A04BF7F
:1009C000022010BD2068012284F8A82203F046FD11
:1009D000002084F8A80210BDB0B50446406801F0BC
:1009E0000F02824284BF0120B0BD48B2B0F1FF3F88
:1009F00001F0070000EB800104EBC10206DD02F507
:100A0000B471002382F8693105E000BF012302F1CF
:100A1000280182F8293094F8A8220025012A8D7037
:100A2000087004BF0220B0BD2068012284F8A8220B
:100A300003F0A0FD284684F8A852B0BD01F00701DC
:100A400001EB810100EBC100D0F884017047000088
:100A500070B5064648B2B0F1FF3F01F0070000EB69
:100A6000800107DD06EBC10404F5B471002584F8AC
:100A7000695106E006EBC10C01240CF128018CF849
:100A8000294008700A61022BCB7004BF0020087156
:100A900096F8A802012804BF022070BD3068012228
:100AA00086F8A82203F0B4FB002086F8A80270BDE7
:100AB00010B501F0070C0CEB8C0100EBC10E0068C7
:100AC0000EF5B4710024CEF87C21CEF88031CEF83A
:100AD00084418EF869418EF868C103F0A3FD0020BF
:100AE00010BD000010B54268044601F007009042B6
:100AF00084BF012010BD4AB2B2F1FF3F0ADD01EB15
:100B0000810104EBC10202F5B471002382F869315E
:100B100009E000BF00EB800104EBC102012302F1F8
:100B2000280182F8293094F8A8320122012B8A701A
:100B3000087004BF022010BD206884F8A82203F0CA
:100B400057FD002084F8A80210BD000080B501F018
:100B5000070C0CEB8C0100EBC10101F828CF0068F9
:100B60004FF0010C01F1140781F824C04FF0000E82
:100B700087E80C400B6281F801C003F053FD0020B0
:100B800080BD00002DE9F04F81B00446006804F0FC
:100B900079F901041ED4410500F11084410400F1EB
:100BA0001F84810400F13684C10400F13D840105F5
:100BB00000F15484810500F16B84C00540F10C8480
:100BC0002068B0F8441021F48071A0F8441000F0BF
:100BD00003BC00BF2068B0F94410B1F1FF3F00F33F
:100BE000FB8304F52C7140F60F75009123E000BFE4
:100BF000B0F8501094F8682101EBC20100EB4101FC
:100C0000B1F80C34B4F86E2100996FF39F23C4F847
:100C1000843104F03BF9206801882940803101804B
:100C2000204600F0EFFC00BF2068B0F94410B1F19D
:100C3000FF3F00F3D183B0F8442012F00F090DD02C
:100C400030F929104FEA490AB1F1FF3F1FFA81F844
:100C500032DD5FEA0860E7D562E100BF0188D206B5
:100C60006CD4294001F500410180B0F8501094F88F
:100C7000282001EBC20100EB4100B0F80404E16B55
:100C80006FF39F2060640844E06320460021FFF773
:100C900065FE94F824000028C6D0206C0028C3D13B
:100CA00094F82400216840F08000C0B2A1F84C0004
:100CB000002084F82400B7E730F81A10294080316A
:100CC00020F81A1009EB890104EBC10B9BF8741191
:100CD0000BF5B476002900F083809BF86B11022994
:100CE00040F09080B0F850203178DBF8803102EB92
:100CF000C1070BF5C0725FEA484500EB470700F1FA
:100D00009B80B7F80C7400256FF39F27DB1B38BF5F
:100D10002B46136040F2A8805FEA486240F60F75E8
:100D200000F1B48030F8212048F2C0032A401A4371
:100D300020F82120002F40F0AA80CFE00A053FF5DF
:100D400057AF09B2B1F1FF3F3FF76EAF01882940BD
:100D500080310180B0F8501094F8682101EBC20195
:100D600000EB4101B1F80C346FF39F23C4F88431D8
:100D700093B1D4F87C1179B1B4F86E2104F086F8FF
:100D8000D4F87C01D4F884110844C4F87C012046CE
:100D90000021FFF7EDFD206801880A053FF544AF0B
:100DA00001F44051B1F5405F3FF43EAFB0F8501050
:100DB00000F20C42535A6FF39F235352D4F8783108
:100DC0003F2BC0F0178231F802C05F09DE064FF0FA
:100DD000FF3608BF06EB53174CEA872393E200BFA8
:100DE000B0F85010327801EBC20100EB4101B1F8CC
:100DF0000C746FF39F27002F70D0DBF87C11BBF8C9
:100E00006E2167E0317848F2C00330F821202A4093
:100E10001A4320F8212030F82120B0F85030520435
:100E200003EBC10100EB410118D4B1F80C746FF36E
:100E30009F2767BB52E000BFB7F8047400256FF32B
:100E40009F27DB1B38BF2B46136025D95FEA48621A
:100E500040F60F7531D4CFBB40E000BFB1F8047449
:100E60006FF39F2797BB39E030F8212043F60F73CB
:100E70001A404CF28003A3F500535A4020F8212079
:100E80005FEA486240F60F757FF54CAF37B3DBF889
:100E90007C11BBF872211DE030F8212043F60F735E
:100EA0001A404CF28003A3F500535A4020F8212049
:100EB0005FEA486240F60F75CDD530F8212048F240
:100EC000C0032A401A4320F821203FB1DBF87C11EF
:100ED000BBF870213B4603F0D9FF00E00027DBF8A8
:100EE0008411DBE95F0239443844CBF88411CBF834
:100EF0007C011AB1DBF87801B84209D93178204673
:100F0000FFF736FD5FEA08607FF58EAE08E000BFB0
:100F10002068314603F086FB5FEA08607FF584AE07
:100F2000206809EB890130F81A2004EBC10302EABA
:100F3000050101F5004120F81A1093F82B1003F178
:100F4000280B012926D193F8341000294FF0000115
:100F5000196400F049815FEA486100F1918093F8DB
:100F60002910012900F02A81002940F03D81B0F8C4
:100F700050109BF80020084400EB0210B0F80C144D
:100F80006FF39F21A0F80C14B0F80C1441F4004149
:100F90001CE100BF5FEAC8511ED4B0F850209BF896
:100FA00000101F6C02EBC10200EB4202B2F80424F5
:100FB00000266FF39F22BF1A38BF37461F6440F2E6
:100FC0001581D96B5F6C1144D963B91859645946BE
:100FD00003F028FB28E600BFB0F850709BF8001023
:100FE0001A4652F8405F40F60F7A5FEA486607EB10
:100FF000C1075FD400F20C4939F817706FF39F27CF
:10100000EE1B4FF0000538BF2E46166040F28E8072
:101010005FEA484208D430F821204CF2800602EA08
:101020000A02324320F821201D4615F84C2F012AD0
:1010300040F0B2811A4652F8488F52E904E652F85D
:1010400004AC06EB070C0AEB0706F04542F80CCCA3
:1010500042F8046C80F01081B8F1000F00F06C8150
:101060000027C64617602F7093F82920012A40F008
:101070000B81B0F8502009EB011121F802E07FE16B
:1010800093F82910012900F0A580002940F0AC80D8
:10109000B0F850109BF80020084400EB0210B0F8A4
:1010A00004146FF39F21A0F80414B0F8041441F461
:1010B000004197E000F2044939F817706FF39F2759
:1010C000EE1B4FF0000538BF2E46166052D95FEA7E
:1010D000484208D530F821204CF2800602EA0A0284
:1010E000324320F821201A4612F84C6F012E40F0AE
:1010F00053811D4655F848EF55E904A655F8048C70
:1011000006EB070C08EB0706D64545F80CCC45F86E
:10111000046C80F0D3804FF00008BEF1000F82F81D
:10112000008040F0CE80BE46CDE000BF93F829207D
:10113000012A6BD0002A76D1B0F8502000EB0113C1
:101140001A44B2F804346FF39F23A2F80434B2F8BF
:10115000043443F40043A2F80434B0F8500009EB1F
:101160000112135A6FF39F231352135A43F400438F
:1011700058E000BF93F82920012A5BD0002A66D1ED
:10118000B0F8502009EB01139F5A6FF39F279F522D
:101190009F5A47F400479F52B0F8502000EB0110CF
:1011A0001044B0F80C246FF39F22A0F80C24B0F880
:1011B0000C2442F40042A0F80C2448E0B0F850108F
:1011C0009BF80020084400EB02100021A0F80C144A
:1011D0000AE000BFB0F850109BF80020084400EB74
:1011E00002100021A0F804149BF800102046FFF71D
:1011F000B5FB19E5002B00F0858003F001078E5A3E
:1012000007EB530346EA832382E000BFB0F8502087
:1012100000EB01131A440023A2F80434B0F8500084
:1012200009EB011213522046FFF798FB5FEA484092
:1012300014D5B1E0B0F8502009EB011300279F52FC
:10124000B0F8502000EB01101044A0F80C742046B8
:10125000FFF784FB5FEA484040F19E8020689BF8DE
:1012600000104CF2800330F8212002EA0A021A43EF
:1012700020F8212090E000BFA8EB0E05156093F840
:101280002920012A3FF4F5AE002A79D1B0F8507038
:1012900009EB0111CA5BBEF13F0F6FF39F22CA53E6
:1012A00052D35FEACE654FEA5E127D5A4FF0FF36A9
:1012B00008BF06EB5E1245EA82225EE0AEEB0A084A
:1012C000D646C5F8008093F82920012A2CD0002AA0
:1012D0005CD1B0F8507009EB0111CA5BBEF13F0F51
:1012E0006FF39F22CA533BD35FEACE654FEA5E128B
:1012F0007D5A4FF0FF3608BF06EB5E1245EA8222A8
:1013000041E000BF8B5A48F20007CFF6FF773B431E
:101310008B52018843F60F7211404CF28002A2F505
:101320008052514001807FE4B0F8502009EB011158
:1013300021F802E02AE000BF00222A70BE4693F89E
:101340002920012AA0D194E6BEF1000F14D00EF09E
:1013500001027D5A02EB5E0245EA82220FE000BFE5
:10136000BEF1000F0ED00EF001027D5A02EB5E02BC
:1013700045EA822209E000BF7A5A42F400427A52DA
:101380005A8E04E07A5A42F400427A521A8E1FFAB8
:101390008EF3614603F0D2FD20689BF8001040F602
:1013A0003F7330F8212040F60F751A4048F2C00311
:1013B000103B5A4020F82120FFF736BC2068B0F8D7
:1013C000441021F48061A0F84410204600F0ECF8AD
:1013D00094F8A80201280DD101B0BDE8F08F00BF3C
:1013E0002068B0F8441021F48041A0F8441001B006
:1013F000BDE8F08F0120002584F8A80284F824506D
:101400002068002103F092FD84F8A85201B0BDE8E5
:10141000F08F00BF2068B0F8441021F40051A0F80C
:10142000441001B0BDE8F08F2068B0F8401021F002
:101430000401A0F84010B0F8401021F00801A0F815
:101440004010204600F0C2F82068B0F8441021F4A3
:101450008051A0F8441001B0BDE8F08F2168B1F8C8
:10146000400040F00800A1F84000B1F8440020F42A
:101470000060A1F84400B1F8400040F004022046AA
:10148000A1F8402001B0BDE8F04F00F0DDB800BF8A
:101490002168B1F8440020F400722046A1F84420ED
:1014A00001B0BDE8F04F00F095B80000002804BF7F
:1014B00001207047F0B585B0054690F8A90228B91B
:1014C000002085F8A802284600F04AF8032085F895
:1014D000A902286803F044F8696859B300204FF066
:1014E000010C0022002300BF02EB820205EBC204C4
:1014F00084F828300133DAB2914284F829C084F8A4
:101500002B00C4E90E002064EED800200023002246
:1015100003EB830305EBC30484F868210132D3B2E3
:10152000994284F8690184F86B01C4E95E00C4F84B
:101530008001EDD805F1080E28689EE81C50D5E919
:1015400007678DE81050CDE9036702F0FBFF00202C
:10155000012185F8240085F8A91205B0F0BD00002E
:1015600080B582B0006845F60041C4F200018842AF
:101570001CBF02B080BD43F62400C4F20200016823
:10158000002241F4000101600068012100F4000024
:10159000019001981420FFF77BF9142002B0BDE8F8
:1015A0008040FFF761B9000010B50446806802284A
:1015B00018BFFEF7A5FFD4F8E802012102F0DAFA1D
:1015C000D4F8E802BDE8104002F094BAD0F8E8027E
:1015D00002F0BABAD0F8E80202F0BEBA10B504467A
:1015E00090F8A802012804BF022010BD012084F851
:1015F000A80284F82410206803F098FC002084F8E6
:10160000A80210BDD0F8E82200F52C71104602F0B7
:10161000C7BA000010B5044690F8A802012804BF1C
:10162000022010BD2068012184F8A81203F01AFCE2
:1016300020460121FFF786F9206802F081FF002093
:1016400084F8A80210BD000010B50446D0F8E802E6
:1016500002F0FAFAA069002808BF10BD4EF610503B
:10166000CEF20000016841F00601016010BD0000EB
:101670002DE9F04182B004460078C00762D043F6FD
:101680002406C4F20206306810F0805808D1306891
:1016900040F080503060306800F080500190019838
:1016A00047F20007C4F200073868C00512D4386852
:1016B00040F480703860FFF767F805463868C00569
:1016C00008D4FFF761F8401B6428F7D9032002B063
:1016D000BDE8F08156F8240C6168484010F0C04F16
:1016E00001F4403006D0B0F5403F03D156F8241C39
:1016F00089032BD4316911F4403105D081421CBFDC
:1017000020785FEAC07025D12078C0070FD06168CB
:1017100001F44030B0F5403F06D156F8242C490F73
:1017200061F35E7246F8242C316908433061B8F1E8
:10173000000F07D1306820F080503060002002B0E8
:10174000BDE8F081002002B0BDE8F081012002B0C8
:10175000BDE8F081306940F2DC62C4F24722012327
:1017600020F4403113600023C00513603161CBD5F4
:10177000FFF70AF8054641F2883700BF3069800557
:10178000C2D4FFF701F8401BB8424FF00300F5D96F
:10179000D5E700002DE9F041002800F0A18043F6D4
:1017A0000807C4F202070446D7F8F8030D4600F014
:1017B0000100884215D2012D05D1D7F8F80340F079
:1017C0000400C7F8F803D7F8F80320F00100284315
:1017D000C7F8F803D7F8F80300F00100A84240F07A
:1017E0007F802068810705D53968A26821F0F00163
:1017F00011433960C00737D1D7F8F80300F0010072
:10180000A84209D9D7F8F80320F00100C7F8F80377
:10181000D7F8F803C00763D12068410705D53968B8
:10182000E26821F4E06111433960000706D53868A9
:10183000216920F4605040EAC10038603968C1F382
:10184000810242F20040C0F2F400DFE802F003A49B
:101850001D2300BF57F8040C4FF48031C0F3423011
:1018600001FA00F097E000BF6068012824D0032847
:101870002AD0022830D157F8081C89035CBF012008
:10188000BDE8F08130E000BF43F20060C0F26E10AE
:1018900081E000BF45F2F413C1F38342C0F60003B8
:1018A0009B5C3A68C1F38151D20301F1010269D412
:1018B0005843B0FBF2F06EE057F8081C89075CBF94
:1018C0000120BDE8F0810FE057F8081C89015CBFDA
:1018D0000120BDE8F08107E057F8081C890503D412
:1018E0000120BDE8F08100BF396821F00301084301
:1018F0003860FEF749FF61680646032941F28838DF
:101900002BD0022937D0012910D100BF386800F050
:101910000C0004283FF470AFFEF736FF801B4045F3
:101920004FF00300F2D9BDE8F08100BF386810F035
:101930000C0F3FF461AFFEF727FF801B40454FF0CF
:10194000030088BFBDE8F081F0E700BFFEF71CFF91
:10195000801B40454FF00300E5D8386800F00C00CC
:101960000C28F3D148E700BFFEF70EFF801B40456F
:101970004FF00300D7D8386800F00C000828F3D1E6
:101980003AE700BF43F20060C0F26E10A3FB000113
:101990000023FEF73DFC396845F2DC12C1F3031168
:1019A000C0F60002515C40F2240220FA01F140F23C
:1019B0000000C2F200000068C2F200021160BDE83F
:1019C000F041FEF705BF000040F2240043F6080195
:1019D000C2F20000C4F202010068096845F2EC128C
:1019E000C1F30221C0F60002515CC84070470000FC
:1019F00040F2240043F60801C2F20000C4F20201E2
:101A00000068096845F2EC12C1F3C221C0F6000279
:101A1000515CC840704700002DE9F04383B00028B6
:101A200000F0AE8243F600060446C4F20206B06837
:101A3000B168227800F00C09D00701F4803710D08B
:101A4000B9F1080F06D0B9F10C0F40F0E580002F76
:101A500000F0E2803068800303D56068002800F061
:101A60008F82207880072FD5B9F1040F1ED0B9F1ED
:101A70000C0F08BF002F19D0E068002800F04C813F
:101A80000020C4F2472001210160FEF77DFE0546DB
:101A90003068800711D4FEF777FE401B02284FF014
:101AA0000300F5D903B0BDE8F08300BF30688007BC
:101AB00003D5E068012840F063827068216920F452
:101AC000F85040EA012070602078C00626D42078C3
:101AD00000073DD42078400750D4656ACDB1B9F1F4
:101AE0000C0F40F0D580012D00F04A82B068A16A49
:101AF00000F480328A4240F04382E16A00F47012BE
:101B00008A4240F03D82216B00F44000884240F060
:101B10003782002003B0BDE8F08300BFB9F1000FA9
:101B200066D0A069002800F09F800020C4F2472002
:101B300001210162FEF728FE054600BF30688005DE
:101B400000F1C880FEF720FE401B0228F6D927E1ED
:101B50006069002872D00020C4F247200121C0F83B
:101B60008016FEF711FE0546706B8007B2D4FEF7B3
:101B70000BFE401B0228F7D912E100BF706A10F07B
:101B8000805808D1706A40F080507062706A00F02E
:101B900080500090009847F20007C4F200073868B0
:101BA000C00513D4386840F480703860FEF7ECFD4F
:101BB000054600BF3868C00508D4FEF7E5FD401BA8
:101BC00064284FF00300F5D96CE700BFA068002837
:101BD00000F0B680052800F0CD80012800F0CE800E
:101BE000706B20F480707063706B20F48060C8E0CC
:101BF0003068800503D5A069002800F0C181206A03
:101C0000716801F46041884272D9B16811F0F00F37
:101C100000F0048100215BE16068002800F0CE80C4
:101C2000052800F0E380012800F0E480306820F40B
:101C300080303060306820F48020DEE00020C4F284
:101C400047200021C0F88016FEF79EFD054600BF24
:101C5000706B80077FF53EAFFEF796FD401B0228B4
:101C60004FF00300F4D91DE70020C4F24720002103
:101C70000162FEF789FD0546306880057FF527AFD4
:101C8000FEF782FD401B02284FF00300F4D909E75C
:101C90000027C4F2472700203866FEF775FD022DA5
:101CA00005460BD13068800140F1CE80FEF76CFD17
:101CB000401B02284FF00300F4D9F3E6306880019E
:101CC0007FF527AFFEF760FD401B02284FF00300B1
:101CD000F4D9E7E67068D4E9072120F460400843AE
:101CE0007060706820F07F4040EA02607060EEE64D
:101CF000716821F46041014371607168E26921F00B
:101D00007F4141EA02617160B16811F0F00F00F0AB
:101D1000B780002108E100BF0020C4F24720002165
:101D20000160FEF731FD0546306880077FF5CCAED7
:101D3000FEF72AFD401B02284FF00300F4D9B1E65C
:101D4000706B20F480707063706B20F4806070633F
:101D5000FEF71AFD054641F2883700BF706B80051B
:101D600022D5FEF711FD401BB8424FF00300F5D914
:101D700098E600BF706B40F480607063706B40F455
:101D800080707063FEF700FD054641F2883700BFA2
:101D9000706B800508D4FEF7F7FC401BB842F7D9FA
:101DA000032003B0BDE8F083B8F1000F7FF495AED7
:101DB000706A20F0805070628FE600BF306820F4B7
:101DC00080303060306820F480203060FEF7DCFC2A
:101DD000054600BF306880037FF543AEFEF7D4FCB4
:101DE000401B64284FF00300F4D95BE6306840F4F0
:101DF00080203060306840F480303060FEF7C4FCF2
:101E0000054600BF306880033FF52BAEFEF7BCFCF3
:101E1000401B64284FF00300F4D943E6716AC900FF
:101E200047F20001C4F2000140D4726A42F08052CD
:101E30007262726A02F080520192019A0A68716AB3
:101E400021F08051716232E0B06804F128030ECBBA
:101E500020F47D00084310431843B0600120386629
:101E6000FEF792FC044600BF306880013FF551AE9A
:101E7000FEF78AFC001B02284FF00300F4D911E69C
:101E8000716AC90047F20001C4F200013AD4726AD3
:101E900042F080527262726A02F080520292029A9A
:101EA0000A68716A21F0805171622CE00A68B0F50D
:101EB000404F4FF000010BD102F4C052B2F5C05FA9
:101EC00006D1D6F8001441F00401C6F8001401212F
:101ED000D6F8002422F001020A44C6F80024D6F8FD
:101EE000002402F001028A424AD1716821F4604163
:101EF000014371607168E26921F07F4141EA02614A
:101F000071601EE00A68B0F5404F4FF000010BD140
:101F100002F4C052B2F5C05F06D1D6F8001441F009
:101F20000401C6F800140121D6F8002422F00102B1
:101F30000A44C6F80024D6F8002402F001028A42BE
:101F40001ED1B16845F2DC12C1F30311C0F60002E4
:101F5000400B515C4FF4803202FA00F020FA01F19C
:101F600040F20000C2F2000040F224020068C2F217
:101F700000021160FEF72CFC00287FF493ADA6E56B
:101F8000012003B0BDE8F083F0B581B00446007FC6
:101F900001284FF002004AD00E46012121776077D8
:101FA0002068CA2141625321416281681546490572
:101FB00018D4816821F480618160C16861F4906106
:101FC00021F48061C160FEF7DFFB07462168C86825
:101FD000400719D4FEF7D8FBC01BB0F57A7FF5D9BE
:101FE0000EE000BFFEF7D0FB074600BF2068C168C7
:101FF0004907DED5FEF7C8FBC01BB0F57A7FF5D9DF
:102000002168032203200DE08868012220F00700E8
:1020100088608868284388604E61886840F48060E2
:1020200088600020FF234B6200216277217701B096
:10203000F0BD0000B0B5002859D00446407F20B95B
:1020400000202077204600F06BF80220607721689E
:10205000C868C00658D4CA20486253204862C8687D
:10206000400615D4C86840F08000C860FEF78CFBBD
:102070002168CA6852060BD4054600BFFEF784FBF0
:10208000401BB0F57A7F43D82168C8684006F5D573
:1020900088684FF6BF72CFF68F7210408860D4E91F
:1020A000010CD4E90335626928438D681043284345
:1020B00088600B61086940EA0C400861C86820F03C
:1020C0008000C86043F65770C860FEF75DFB0546A8
:1020D0002068C16889060DD4FEF756FB401BB0F599
:1020E0007A7FF5D9042060772068FF2141620120C2
:1020F000B0BD00BF016C21F480210164A169026CB4
:1021000011430164FF214162012060770020B0BDCE
:10211000042060772068C168FF2141620120B0BDC2
:10212000006842F60001C4F20001884218BF7047FF
:1021300040F2D860C4F247200121016070470000DE
:102140002DE9F0410446007F01284FF0020008BF4E
:10215000BDE8F0810123237760773AB14878CA78E7
:102160008E78000240EA024842E000BF48784FF013
:10217000CD0CC20642BF00F0EF000A304870CA78AA
:102180004FF0010EA2F10A03DFB207FB0CF7FD0AC4
:1021900005EB8505A3EB45038E780EEBD727092ABF
:1021A00088BF43EA0712A0F10A03DFB207FB0CF76E
:1021B000FD0A05EB8505A3EB45030EEBD7250928A2
:1021C00088BF43EA0510C0B2D2B2000240EA02481A
:1021D000A6F10A00C2B202FB0CF2D30A03EB83039E
:1021E000A0EB43000EEBD222092E88BF40EA021674
:1021F0000F782168CA20486253204862C8684006A8
:1022000014D4C86840F08000C860FEF7BDFA2168A9
:10221000CA6852060AD40546FEF7B6FA401BB0F566
:102220007A7F29D82168C8684006F5D5F0B240EA1F
:1022300008007A0320F0C00010434860C86820F00E
:102240008000C86043F65770C860FEF79DFA0546E7
:102250002168C86880060BD4FEF796FA401BB0F5DB
:102260007A7FF5D9042060772168012009E000BF5A
:1022700001206077002004E0042060772168C868AE
:102280000120FF224A6200212177BDE8F081000091
:102290002DE9F0470446007F01284FF0020008BFF7
:1022A000BDE8F0870D4601212177607721688868B5
:1022B00000F0400032B158B94FF0000885F80380B3
:1022C00009E000BF80B94FF0000885F803800EE0F8
:1022D000E8784FEA80586A78287895F802A01202C8
:1022E00042EA004941E000BFE8784FEA8058287888
:1022F0004FF0CD0CA0F10A03DEB206FB0CF6F70A94
:102300006A7807EB8707A3EB47034FF0010E95F8B8
:1023100002A00EEBD626092888BF43EA0610A2F1D8
:102320000A03DEB206FB0CF6F70A07EB8707A3EBFE
:1023300047030EEBD626092A88BF43EA0612D2B21B
:10234000C0B2120242EA0049AAF10A00C2B202FB7C
:102350000CF2D30A03EB8303A0EB43000EEBD22273
:10236000BAF1090F88BF40EA021ACA204862532016
:102370004862C868400615D4C86840F08000C8604C
:10238000FEF702FA2168CA6852060BD4064600BF5F
:10239000FEF7FAF9801BB0F57A7F37D82168C86854
:1023A0004006F5D55FFA8AF040EA090047F67F72E9
:1023B00040EA0800C0F27F0210400860886820F4FC
:1023C00080208860D5E901028B681043184388603B
:1023D000C86820F08000C86043F65770C860FEF7F8
:1023E000D3F905462168C86880060BD4FEF7CCF9FE
:1023F000401BB0F57A7FF5D9042060772168012071
:1024000009E000BF01206077002004E0042060772D
:102410002168C8680120FF224A6200212177BDE8B7
:10242000F0870000411E0020B0EB116F1CBF01209F
:1024300070474EF21002CEF2000251604EF6235168
:10244000CEF20001F0230B700721906011607047FD
:102450007047000070470000B0B582B004460068C5
:102460000168C368426901F02F05202D03F02005A3
:1024700006D12DB1204602B0BDE8B04000F00CBE40
:102480005FEA017C1EBF02F0010E03F4907212EBB2
:102490000E0253D1226B012A05D111F0100218BF90
:1024A00013F0100236D10A0622D513F080021FD095
:1024B00094F8411021293FD1A168B1F5805F03D183
:1024C0002169002900F07082216A4A1C2262097881
:1024D0004160E18C01390A04E1842DD1C16821F009
:1024E0008001C160C16841F04001C16002B0B0BD6F
:1024F000490621D513F040011ED0C16821F04001EA
:10250000C1602021204684F8411002B0BDE8B040EF
:1025100000F0D4BC00210191016801914168019152
:1025200001994069400613D4A08DE18DE28D002A07
:1025300018BF884240F0BA8102B0B0BDCA0718BFC8
:1025400013F4807240F0B6804A0700F1B980BEE013
:10255000E06B016849688AB2002AEDD0A38D9A42E7
:10256000EAD2E1858069202800F09C80206850E84C
:10257000030F216820F4807041E80302DAB120687B
:1025800050E8030F216820F4807041E8030292B103
:10259000206850E8030F216820F4807041E80302AE
:1025A0004AB1206850E8030F216820F4807041E8A8
:1025B0000302002ADAD1206850E8050F216820F0D4
:1025C000010041E80502DAB1206850E8050F2168F2
:1025D00020F0010041E8050292B1206850E8050FA3
:1025E000216820F0010041E805024AB1206850E866
:1025F000050F216820F0010041E80502002ADAD128
:10260000206850E8050F216820F0400041E80502ED
:10261000DAB1206850E8050F216820F0400041E859
:10262000050292B1206850E8050F216820F04000B3
:1026300041E805024AB1206850E8050F216820F002
:10264000400041E80502002ADAD1202084F8420047
:1026500000202063206850E8030F216820F010005C
:1026600041E80302DAB1206850E8030F216820F046
:10267000100041E8030292B1206850E8030F21687E
:1026800020F0100041E803024AB1206850E8030F2F
:10269000216820F0100041E80302002ADAD1E06B43
:1026A000FDF734FF02206063A08DE18D401A81B2F6
:1026B000204674E1626C42F0010262644A0706D56A
:1026C000BEF1000F03D0626C42F0020262648A071E
:1026D00006D5BEF1000F03D0626C42F004026264C2
:1026E000BCF1000F09D545EA0E02B2FA82F2520996
:1026F00003D1626C42F008026264626C002A3FF40B
:102700001BAF11F0200118BF002D03D0204600F0B0
:10271000C3FC20684069616C00F0400001F00801D2
:10272000401800F0B58000BF206850E8030F216812
:1027300020F4907041E80302BAB3206850E8030F18
:10274000216820F4907041E8030272B3206850E8D9
:10275000030F216820F4907041E803022AB3206837
:1027600050E8030F216820F4907041E80302002A2A
:10277000DAD11AE0206850E8050F216820F0010046
:1027800041E80502DAB1206850E8050F216820F021
:10279000010041E8050292B1206850E8050F216868
:1027A00020F0010041E805024AB1206850E8050F19
:1027B000216820F0010041E80502002ADAD1206BEF
:1027C000012824D1206850E8030F216820F0100070
:1027D00041E80302DAB1206850E8030F216820F0D5
:1027E000100041E8030292B1206850E8030F21680D
:1027F00020F0100041E803024AB1206850E8030FBE
:10280000216820F0100041E80302002ADAD12020DC
:1028100084F84200002020632068406940063FD5CC
:10282000206850E8050F216820F0400041E80502CB
:10283000DAB1206850E8050F216820F0400041E837
:10284000050292B1206850E8050F216820F0400091
:1028500041E805024AB1206850E8050F216820F0E0
:10286000400041E80502002ADAD1E06BC0B143F232
:102870008D01C0F600014163FDF76EFE00283FF4B4
:102880005BAEE06B416B02B0BDE8B040084700BFF3
:102890002046FFF7DFFD0020606402B0B0BD00BF3E
:1028A000204602B0BDE8B040FFF7D4BD401A216811
:1028B00051E8031F226821F4907142E80313DBB151
:1028C000216851E8031F226821F4907142E8031344
:1028D00093B1216851E8031F226821F4907142E806
:1028E00003134BB1216851E8031F226821F4907152
:1028F00042E80313002BDAD1216851E8051F226852
:1029000021F0010142E80513DBB1216851E8051F00
:10291000226821F0010142E8051393B1216851E8D2
:10292000051F226821F0010142E805134BB121681F
:1029300051E8051F226821F0010142E80513002B30
:10294000DAD1202184F8421000212163216851E866
:10295000031F226821F0100142E80313DBB1216854
:1029600051E8031F226821F0100142E8031393B1DC
:10297000216851E8031F226821F0100142E8031387
:102980004BB1216851E8031F226821F0100142E891
:102990000313002BDAD1022281B22046626302B017
:1029A000BDE8B040FFF754BD216A31F8022B6FF348
:1029B0005F22426021628CE5002804BF012070473D
:1029C00010B5044690F8410028B9002084F8400072
:1029D000204600F021F8242084F841002068C168D6
:1029E00021F40051C160204600F0D6FB2068016947
:1029F00021F490410161416921F02A014161C168DE
:102A000041F40051C16000202021606484F841102D
:102A100084F84210606310BD80B586B0016844F64A
:102A20000000C4F20000814202D006B080BD00BFA9
:102A300043F61C01C4F202018A6800F5DE3042F45C
:102A400080228A608A6802F480220192019A0A68D0
:102A500042F002020A60096801F002010191019945
:102A60004FF4406101910221029100210391032161
:102A700004910721059101A9FDF7AEFD2720002152
:102A80000022FDF705FF2720FDF7EEFE06B080BD12
:102A90002DE9F04381B0044690F84200202827D168
:102AA000884600294FF0010000F0C7801746002A31
:102AB00000F0C380002022211D46606484F842108B
:102AC0002063FDF761FEA785E785A1680746B1F59C
:102AD000805F03D12069002800F0A68046464FF0B1
:102AE0000008E08D002800F0A48005F1010910E045
:102AF000022001B0BDE8F083406800266FF35F203C
:102B000028F8020BE08D0138E085E08D002800F008
:102B100090802068016889060ED4B9F1000F19D0A1
:102B200055B300BFFDF730FEC01BA84224D8206873
:102B300001688906F6D500BF002EDDD0A168B1F589
:102B4000805F15D009B9216991B1406800F07F001C
:102B50000FE000BF01688906EED4016889065CBFFA
:102B600001685FEA8161E7D401688906F2D5E3E78D
:102B7000406806F8010BC5E7206850E8030F21689C
:102B800020F4D07041E80302E2B1206850E8030F5E
:102B9000216820F4D07041E803029AB1206850E81F
:102BA000030F216820F4D07041E8030252B120687D
:102BB00050E8030F216820F4D07041E80302002A96
:102BC000DAD100BF206850E8050F216820F001002D
:102BD00041E80502DAB1206850E8050F216820F0CD
:102BE000010041E8050292B1206850E8050F216814
:102BF00020F0010041E805024AB1206850E8050FC5
:102C0000216820F0010041E80502002ADAD12020E5
:102C100084F8410084F84200002084F8400003203A
:102C200001B0BDE8F08300BF0026E08D00287FF4EE
:102C30005CAF202084F84200002001B0BDE8F083A2
:102C4000704700002DE9F04381B0044690F8410040
:102C5000202840F0B180884600294FF0010000F0A4
:102C6000D6801646002A00F0D28000206064212021
:102C70001D4684F84100FDF787FDA684E684A1681F
:102C80000646B1F5805F03D12069002800F09880E6
:102C900047464FF00008E18C2068002900F096803C
:102CA00005F101090BE000BF47B317F8011B4160B4
:102CB000E18C0139E184E18C002900F08780016812
:102CC0000906F1D4B9F1000F0AD0EDB1FDF75CFDB2
:102CD000801BA84218D8206801680906F6D5E3E7EA
:102CE00001680906E0D4016809065CBF01685FEA73
:102CF0000161D9D401680906F2D5D5E738F8021B7D
:102D000000276FF35F21D2E7206850E8030F2168A6
:102D100020F4D07041E80302BAB3206850E8030FF2
:102D2000216820F4D07041E8030272B3206850E8B3
:102D3000030F216820F4D07041E803022AB3206811
:102D400050E8030F216820F4D07041E80302002A04
:102D5000DAD11AE0206850E8050F216820F0010060
:102D600041E80502DAB1206850E8050F216820F03B
:102D7000010041E8050292B1206850E8050F216882
:102D800020F0010041E805024AB1206850E8050F33
:102D9000216820F0010041E80502002ADAD1202054
:102DA00084F8410084F84200002084F840000320A9
:102DB00001B0BDE8F08300BF022001B0BDE8F083A0
:102DC0000027E18C206800297FF46AAF016849067A
:102DD00019D4FDB1691C0DD10168490613D40168ED
:102DE00049065CBF01685FEA41610CD4016849068D
:102DF000F2D508E0FDF7C8FC801BA8420AD820687D
:102E000000684006F6D5202084F84100002001B07B
:102E1000BDE8F083206850E8030F216820F4D070EB
:102E200041E80302002A3ED0206850E8030F2168E1
:102E300020F4D07041E80302AAB3206850E8030FE1
:102E4000216820F4D07041E8030262B3206850E8A2
:102E5000030F216820F4D07041E80302002AD9D181
:102E600021E000BF206850E8050F216820F0010034
:102E700041E80502002A3FF492AF206850E8050FB0
:102E8000216820F0010041E80502002A3FF487AFE5
:102E9000206850E8050F216820F0010041E8050294
:102EA000002A3FF47CAF206850E8050F216820F02D
:102EB000010041E80502002AD4D170E77047000004
:102EC000FEE7000080B541F2600040F20801C2F266
:102ED0000000C2F20001002200F0AAFC002818BF86
:102EE000FDF70EFB41F2600040F22801C2F2000043
:102EF000C2F2000100F0D0FE002818BFFDF700FB71
:102F000041F2600040F24C11C2F20000C2F2000136
:102F100000F0AAFA002818BFFDF7F2FA41F26000AB
:102F2000C2F2000000F0CEFE002808BF80BDBDE860
:102F30008040FDF7E5BA0000FEE70000FEE7000074
:102F4000704700002DE9F04188460546FDF71CFC5E
:102F500041F288314418FDF717FC84422ED940F223
:102F6000E01040F24826C2F20000C2F2000600F172
:102F7000200700BF30464FF4FA71FDF7F2F92846FA
:102F8000FDF7D0F982B2384629464FF47A73FFF73D
:102F900059FE384631464FF4FA724FF47A73FFF710
:102FA00077FD30464146FDF7ABF958B94FF47A70DA
:102FB000FDF7FEFAFDF7E8FB8442DBD80020BDE810
:102FC000F08100BF40F24824C2F200042046FDF721
:102FD000A9F981B22046FDF775FA0120BDE8F0811C
:102FE00070470000FDF7D6BBB0B594B0002447F29F
:102FF00000000F94CDE90D44CDE90B44CDE909441F
:10300000CDE90044C4F200000168012565F3CC213C
:1030100001600B20CDE907051020CDE90B0502204A
:1030200010904FF4803011904FF4802012904FF4A4
:103030008000139007A80A95FEF7EEFC20B1EFF38D
:10304000108072B6FEE700BF0F20CDE9020502A88E
:103050000021CDE904440694FEF79CFB20B1EFF378
:10306000108072B6FEE700BF012000904FF40030E0
:1030700001906846FEF7FCFA20B1EFF3108072B6BB
:10308000FEE700BF14B0B0BD70470000406A0021E9
:10309000C185C184FFF7DEB981B090F842102229C2
:1030A00021D183680246B3F5805F09D152F8281F09
:1030B00052F8183C002B63D003685B680AE000BF3D
:1030C00052F8281F13B90369002BF5D003685B6819
:1030D00003F07F030B70116801311160C18D01395C
:1030E0000A04C18502D001B0704700BF0168CA68F8
:1030F00022F02002CA60CA6822F48072CA604A695B
:1031000022F001024A61202180F84210002141632F
:10311000026B012A3CD10163016851E8031F026878
:1031200021F0100142E80313DBB1016851E8031FED
:10313000026821F0100142E8031393B1016851E8DD
:10314000031F026821F0100142E803134BB101682C
:1031500051E8031F026821F0100142E80313002B1D
:10316000DAD101680A68D20606D5002200920A6800
:103170000092496800910099818D01B0FFF768B90C
:10318000026852686FF35F2221F8022B8162A5E783
:1031900001B0FFF755BD000010B504460068D4E942
:1031A00002C22369016921F440511143016162693E
:1031B00043EA0C01E3691143C268194349F20C6305
:1031C0009A431143C1604169A26921F440711143DE
:1031D00043F60002C4F201029042416102D0FEF7C0
:1031E000F3FB01E0FEF704FCE26961681923B2F524
:1031F000004F03FB00F023D14900B0FBF1F048F28F
:103200001F51C5F2EB11A0FB01235A094FF69C7325
:10321000C0F6FF7303F1805302FB0300322303EB7C
:10322000C000A0FB01014FF4F87000EA111000EBA0
:103230000210C1F3421108442168886010BD00BF2C
:103240008900B0FBF1F048F21F51C5F2EB11A0FB71
:1032500001235A094FF69C73C0F6FF7302FB03006B
:10326000322303EB0010A0FB0101F02000EA511013
:1032700000EB0210C1F3431108442168886010BDBF
:1032800040F20020C2F20000FFF7E6B810B5D0F817
:103290009022C2B101EB810300EB830E5EF81C4F5C
:1032A00064B1D0F898C201EB81030CEBC303D3F8EF
:1032B00038C0B4FBFCF303FB1C4333B100242046AD
:1032C000C2F8144210BD022010BD002400220023C9
:1032D000CEF8004000F0C2FC204610BDB0B5D0F8DA
:1032E0009052044600F086FBD4F89012C5F80C0208
:1032F00049B1D4F8940205F50371C268D5F8040207
:1033000090470020B0BD0220B0BD0000B0B58121C3
:10331000044600F0B7FA002520460121E56200F0DE
:10332000B1FA20468221C4F8585100F0ABFAD4F823
:103330009002256448B1D4F8940240688047D4F8DC
:10334000900200F05DFFC4F890520020B0BD000074
:1033500010B5D0F8941269B1D0F8904294F80002F8
:10336000FF2807D08B6894F8012221469847FF2058
:1033700084F80002002010BD014640F2E8000A2255
:10338000C2F200000A807047014640F2600043220A
:10339000C2F200000A807047014640F2A4004322B6
:1033A000C2F200000A807047014640F2F400432256
:1033B000C2F200000A807047F0B581B00546007C7B
:1033C0004027002808BF4FF40077284681210222B9
:1033D0003B46402400F068FB0126284601210222DA
:1033E0003B46EE6200F060FB284682210322082360
:1033F000C5F8586100F058FB4FF407702E6400F0D8
:1034000001FFC5F89002A8B10746D5F894020068FC
:1034100080470026C7F81462C7F81862287CD7F8DE
:103420000422002808BF4FF40074284601212346D7
:1034300000F04EFB304601B0F0BD000080B5D0F882
:10344000901271B190F810C0D1F8042240230121EC
:10345000BCF1000F08BF4FF4007300F039FB0020EF
:1034600080BD022080BD000000290EBF0220C0F8F0
:103470009412002070470000D0F890220020C2F87B
:1034800004127047D0F890320020C3F80812C3F835
:103490001022704770B582B00446D0F8906291F95E
:1034A00000000D46002210F060018DF80720ADF8F5
:1034B000042011D0202920D1EA8822B3B0F1FF3FA7
:1034C0003CDD6878314686F80002204686F8012205
:1034D00000F09CF8002455E068780B281CD00A28DE
:1034E00020D0C0BB94F8740203283AD101A9204629
:1034F000022200F0A5F8002444E02046294600F00E
:1035000079F802243EE0D4F894022946836868786A
:1035100000220024984735E094F87402032826D14D
:1035200000242FE094F87402032826D10DF107013E
:103530002046012200F084F8002423E0D4F894020D
:103540003146836868789847EA882046314600F01B
:1035500077F8002416E02046294600F04BF80224B4
:1035600010E02046294600F045F802240AE02046F3
:10357000294600F03FF8022404E02046294600F0E6
:1035800039F80224204602B070BD000080B5D0F8A2
:1035900090223AB1D2F8141200294FF0010103D061
:1035A000084680BD022080BDC2F81412D2F8101265
:1035B000D2F8082201638BB2812100F04FFB002179
:1035C000084680BD80B5D0F88C2252689047002014
:1035D00080BD000080B513460A46002100F078FA4D
:1035E000002080BD80B513460A46002100F036FB5E
:1035F000002080BD10B58021044600F001FB20466C
:103600000021BDE8104000F0FBBA000080B5134671
:103610000A460321C0F86C120021C0E9523300F0C1
:1036200057FA002080BD000080B50521C0F86C125B
:1036300000210022002300F04BFA002080BD000092
:1036400080B513460A460221C0F86C120021C0E979
:10365000073300F003FB002080BD000080B504218B
:10366000C0F86C1200210022002300F0F7FA0020BD
:1036700080BD000010B540F24044C2F200040A468A
:1036800002A0214600F09CF8204610BD4344432090
:10369000436F6E666967000040F238101222C2F272
:1036A00000000A807047000010B540F24044C2F2AA
:1036B00000040A4602A0214600F082F8204610BD10
:1036C00043444320496E746572666163650000007F
:1036D00040F25C100422C2F200000A807047000031
:1036E00010B540F24044C2F200040A4602A021464E
:1036F00000F066F8204610BD53544D6963726F6543
:103700006C656374726F6E696373000010B540F28C
:103710004044C2F200040A4602A0214600F050F8DC
:10372000204610BD53544D33322056697274756172
:103730006C20436F6D506F727400000070B55020A4
:10374000C1F6F870026883684FF01A0CD218A1F81D
:1037500000C030D0406840F2601C6FF00101C2F23E
:10376000000C4FF0370E00230CEB01050EEB127628
:10377000B2F1204F01F102014FEA127438BF04F197
:10378000300612010E292E716B71EDD10CF1100172
:1037900004224FF0370C00230CEB1075B0F1204FD2
:1037A0004FEA107638BF06F1300501F8025F0001DC
:1037B000013A4B70F0D140F26010C2F2000070BDCF
:1037C00010B5A0B303786BB1431E4FF0000C00BFDF
:1037D00093F802E00CF1010CBEF1000F03F10103BC
:1037E000F6D101E04FF0000C5FFA8CFC022303EBF2
:1037F0004C03138003220B704A7090F800E0BEF176
:10380000000F08BF10BD013802234FF0000C00BFAD
:10381000DAB242F0010401F802E001F804C090F8C5
:1038200002E00233BEF1000F00F10100F0D110BD43
:10383000002804BF0220704780B5D0F88C32002BDE
:103840001CBF0023C0F88C32002918BFC0F88812B2
:10385000012180F87412027000F0D0F8002080BDC1
:1038600080B5D0F89802FDF7B7F840F200220223A5
:10387000C100C0F20122042838BF22FA01F3D8B2F5
:1038800080BD000080B5D0F89802FDF77DF840F2C9
:1038900000220223C100C0F20122042838BF22FA0C
:1038A00001F3D8B280BD0000B0B5044669B1D4F8C8
:1038B0008C0242693AB194F87402032803D120467D
:1038C0009047002050E00220B0BDD4F86C020028E0
:1038D00018BF042804D12046802100F091F93AE075
:1038E000022838D1D4E90810814208D9081A83B2D5
:1038F0002062204611461A46FFF774FE13E0E16984
:10390000814217D3B1FBF0F202FB101090B9D4F84A
:10391000700281420ED22046002100220025FFF7CE
:1039200061FEC4F87052204600210022002300F0FE
:10393000CFF810E0D4F88C02C16829B194F8740271
:10394000032801D1204688472046802100F058F9FD
:103950002046FFF769FE94F8780201284FF0000036
:1039600004BF84F87802B0BDB0BD0000B0B5044615
:1039700069B1D4F88C0282693AB194F874020328D0
:1039800003D12046904700251AE00220B0BDD4F8AC
:103990006C020025052815D0032811D1D4E9531055
:1039A000814217D9091AC4F84C11814238BF084620
:1039B00083B2204611461A46FFF70CFE0020B0BD28
:1039C0002846B0BD20460021C4F86C5200F018F91A
:1039D0002846B0BDD4F88C02016929B194F874026C
:1039E000032801D1204688472046FFF737FE0020F4
:1039F000B0BD0000D0F89802FDF720B810B504461D
:103A000041F2FC2045F60041C2F20000C4F2000180
:103A10000822022380E80E000021C0F8E842C4F822
:103A20009802036181610162FDF740FD002818BF23
:103A3000FCF766FDD4F89802002100221823FCF759
:103A400063FFD4F89802802100225823FCF75CFF22
:103A5000D4F8980281210022C023FCF755FFD4F846
:103A60009802012100224FF48873FCF74DFFD4F82F
:103A70009802822100224FF48073FCF745FF00205A
:103A800010BD00004AB2D0F8980201F07F0101EBAE
:103A9000810100EBC10000F5B571002A48BF00F1BB
:103AA0002A0108787047000080B59446D0F8980243
:103AB0001A466346FCF7CCFF40F200220223C10005
:103AC000C0F20122042838BF22FA01F3D8B280BD27
:103AD00080B5D0F89802FCF7EBFF40F200220223F9
:103AE000C100C0F20122042838BF22FA01F3D8B283
:103AF00080BD0000F0B581B00021002240230446C3
:103B000000254026FFF7D0FF012720468021002214
:103B10004023C4F84471C4F85061FFF7C5FFD4F8DE
:103B20009002A761666284F87472C4F86C52656092
:103B3000C4F87C5228B1D4F88C0200214268204697
:103B40009047002001B0F0BD90F87522014600209A
:103B500081F874227047000080B590F87412032930
:103B600005D1D0F88C12C969002918BF88470020F8
:103B700080BD0000024600201174704780B5D0F867
:103B80009802FDF72BFD40F200220223C100C0F293
:103B90000122042838BF22FA01F3D8B280BD000008
:103BA000B0B500F520750446284600F069F894F891
:103BB00080020121B4F88622C4F86C1200F01F01C3
:103BC0000229C4F8702208D001290CD089B92046F6
:103BD000294600F07DF80020B0BD2046294600F0BF
:103BE00037FA0020B0BD2046294600F0CFFA002069
:103BF000B0BD00F08001204600F002F80020B0BD0A
:103C000080B5D0F89802FCF76DFF40F20022022345
:103C1000C100C0F20122042838BF22FA01F3D8B251
:103C200080BD000080B5D0F89802FDF7F3FC40F2AB
:103C300000220223C100C0F20122042838BF22FA68
:103C400001F3D8B280BD0000014690F8740204224E
:103C500081F87502002081F87422704780B5D0F891
:103C60009802FCF773FF40F200220223C100C0F269
:103C70000122042838BF22FA01F3D8B280BD000027
:103C80000A7802704A7842704A8842808A88828024
:103C9000C988C1807047000000290EBF0220C0F80B
:103CA0008C1200207047000080B5D0F88C2232B111
:103CB00012689047002818BF0120400080BD0220F4
:103CC00080BD000080B5FFF7ADFF002080BD000083
:103CD000B0B582B00D460978044611F060010AD0F3
:103CE000402901D0202928D1D4F88C0229468268A5
:103CF0002046904729E06878092839D8DFE800F0A5
:103D000005283841386F84384B5D94F874020138C7
:103D1000022800F29980E888022840F0CB80D4F88D
:103D20007C020322002808BF0122214641F80C2F03
:103D300020460222FFF784FC07E020468021FFF79F
:103D40005FFF20460021FFF75BFF002002B0B0BDFF
:103D500094F874020138022800F27F8068880128F4
:103D6000F3D10020C4F87C022046FFF777FCECE793
:103D700020468021FFF744FF20460021FFF740FF47
:103D8000E3E768880128E0D10120C4F87C022046DE
:103D9000FFF764FCD9E7E888012867D194F874023A
:103DA000411E022980F08F800020214641F8080F33
:103DB00020460122FFF744FCC7E7688840F23C45F3
:103DC000C1B2C2F200050229287058D320468021D2
:103DD000FFF716FF20460021FFF712FFB5E7A8887E
:103DE00048BBE88838BB68887F2824D894F87412C8
:103DF000032940F0028120468021FFF701FF204681
:103E00000021FFF7FDFEA0E768884FF0FF3101EBCE
:103E10001021062900F28D80DFE801F004725D8B2D
:103E20008B7F8900D4F888020268207C0DF106019E
:103E300090470146B4E020468021FFF7E1FE20468E
:103E40000021FFF7DDFE80E720468021FFF7D8FE46
:103E500020460021FFF7D4FE77E720468021FFF7B8
:103E6000CFFE20460021FFF7CBFE6EE720468021E3
:103E7000FFF7C6FE20460021FFF7C2FE65E794F873
:103E80007402032833D002285CD1002970D00320AB
:103E900084F8740220466160FFF706FF022840F0B4
:103EA000948020468021FFF7ABFE20460021FFF7DB
:103EB000A7FE4AE720468021FFF7A2FE2046002108
:103EC000FFF79EFE41E7032849D1211D204601222C
:103ED000FFF7B6FB39E7C0B205282AD8DFE800F0C3
:103EE000039FA3A7ABAFD4F8880242689DE70029DF
:103EF00042D0606801286CD12046FFF7AFFB24E771
:103F0000217CD4F88C0200290CBF816AC16A0DF1B2
:103F1000060088470146022041E0207C48B9D4F8D9
:103F20008C02416B0DF106008847014638E0207C89
:103F300068B320468021FFF763FE20460021FFF78B
:103F40005FFE02E720468021FFF75AFE204600214F
:103F5000FFF756FE29782046FFF734FBF5E62046AA
:103F60008021FFF74DFE20460021FFF749FEECE6D9
:103F70002046FFF773FBE8E6022084F8740220462F
:103F80006160FFF71FFB2046FFF768FBDDE6D4F812
:103F90008C02016B0DF1060088470146072048702E
:103FA000BDF8060048B1EA883AB1904238BF0246EF
:103FB0002046ADF80620FFF743FBE88800287FF491
:103FC000C4AE2046FFF74AFBBFE62046FFF746FB9C
:103FD000BBE6C1B22046FFF7F5FA297820466160BA
:103FE000FFF762FE02282ED120468021FFF708FE4F
:103FF00020460021FFF704FEA7E600F07F052046DB
:10400000294684F87652FFF7B9FD2046FFF726FBD4
:10401000002D0CBF0120022084F8740295E6D4F82C
:104020008802826801E7D4F88802C268FDE6D4F805
:1040300088020269F9E6D4F888024269F5E6D4F804
:1040400088028269F1E62046FFF708FB7DE6000062
:10405000B0B50A460978044611F060010BD040293A
:1040600001D020291FD1D4F88C0211468368204644
:1040700098470020B0BD50781179F0B1012836D0B2
:10408000032863D194F87402032834D1508800289F
:104090006ED111F07F006BD0D088002868D1204607
:1040A000FFF7AEFD64E020468021FFF7A9FD204622
:1040B0000021FFF7A5FD0020B0BD94F8740203288D
:1040C00023D0022808BF5FEA41603FD101F07F00A2
:1040D00000EB800004EB800000F11402090658BFD9
:1040E00000F5A072002010602046114649E094F8C7
:1040F0007402032834D0022828D1480626D020464E
:10410000FFF77EFD2046802126E001F00F0000EB46
:104110008000802904EB80002CBF8069D0F8440126
:10412000A0B101F07F0000EB800004EB800000F103
:104130001405802938BF00F5A07548061DD020461B
:10414000FFF7A0FC002818BF012017E020468021BF
:10415000FFF756FD20460021FFF752FD0020B0BDBD
:1041600050880028A7D1480602D02046FFF778FBE8
:104170002046FFF773FA0020B0BD002028602046DB
:1041800029460222FFF75CFA0020B0BDB0B50D460B
:104190000978044611F0600118BF402912D194F843
:1041A00074020138022803D8A88810F0FE0F14D03A
:1041B00020468021FFF724FD20460021FFF720FD47
:1041C0000020B0BD2029EAD020468021FFF718FD4D
:1041D00020460021FFF714FD0AE0D4F88C0229469E
:1041E000826820469047E988002908BF002801D04E
:1041F0000020B0BD2046FFF731FA0020B0BD00001E
:104200007047000040F24060C2F2000070470000BA
:104210002DE9F0410D78024691F803E000EB8503AB
:1042200030F8250047F27067BEF1030F20EA07045B
:1042300008D80020DFE80EF002080F0C44F40074E8
:1042400008E000BF012006E044F4806402E000BF03
:1042500044F4C064002048F28007CFF6FF7744EAB8
:1042600007061E801E8840F60F7426402E433743F3
:104270001F800F7B48F2800C002F49D01C8840F62D
:104280000F66344048F28006BEF1020F08BF06F503
:10429000807634431C80B2F850400E8902EB05153D
:1042A0002C4426F00106A4F80064B2F850204C8992
:1042B0002A4424F00104A2F8084449781A88002905
:1042C00002F480414AD039B1198840F60F7211408A
:1042D0000CF58042114319801988490607D51988C1
:1042E00040F60F7211400CF14002114319801988F9
:1042F00040F63F7211400CF120024A40BEF1010F1E
:1043000008BF41EA0C021A80198843F60F7244E094
:104310004E78B2F85080CC882F01002E24F0010690
:1043200042D0D1194144A1F800641988490607D543
:10433000198840F60F7211400CF1400211431980A8
:10434000198840F63F72BEF1010F01EA020125D043
:104350000CF1200251401980BDE8F08139B1198873
:1043600040F60F7211400CF58042114319801988F4
:10437000490607D5198840F60F7211400CF140022A
:1043800011431980198843F60F7211400CF5405201
:1043900051401980198840F63F72114041EA0C01E2
:1043A0001980BDE8F08100BFD41904EB0807A7F815
:1043B0000864B2F850E004F20C4434F80E606FF375
:1043C0009F2624F80E6009693F290DD3CF063EF8D9
:1043D00004704FEA51164FF0FF3808BF08EB511632
:1043E00047EA862112E000BF71B101F001063EF8F4
:1043F000047006EB510147EA81212EF80410198858
:1044000049040DD414E000BF3EF8041048F2000641
:10441000CFF6FF7631432EF804101988490407D5EA
:10442000198840F60F7739400CF5804739431980D9
:1044300055B1198843F60F7211400CF500525140E6
:104440001980BDE8F08100BF118843F60F7211405A
:104450000CF5405251401980BDE8F081B0B50C78A0
:104460004B78097B024630F824004CF2800C4CF269
:10447000800500294FEA44013AD0002B00F4804027
:1044800040D040B132F8110040F60F73184040EAB6
:104490000C0022F8110032F8110043F60F7E40069E
:1044A00040F63F7009D532F8113040F60F742340C2
:1044B000ACF57F54234322F8113032F8113040F626
:1044C0000F7423402B43ACF5804522F8113032F8AD
:1044D00011301840284322F8110032F81100ACF5D1
:1044E000804300EA0E000343002022F81130B0BDE3
:1044F000F3B1400640F63F7EEFD5ACF57F5540F670
:104500000F70E4E740B132F8110040F60F73184025
:1045100040EA0C0022F8110032F81100ACF57F558A
:10452000400640F63F7E43F60F70BCD4C5E700BF9F
:10453000400443F60F7ED0D540F60F70C7E7000069
:104540000020704701460120A1F840000022002011
:10455000A1F84020A1F84420A1F8502070470000A5
:104560000146B0F8400044F2FF0202400020A1F8EA
:104570004020704780B50A7B12B1002080BD00BF8B
:104580000A784B7830F822C04FEA4202B3B15FEAB2
:104590004C6348F2A00E0BD530F812C040F60F73F2
:1045A0000CEA030C0EF1200343EA0C0320F812304E
:1045B000C9780129E1D040F63F7110E05FEA4C4133
:1045C0004BF2800E09D530F8121040F60F731940E7
:1045D0000EF58053194320F8121043F60F7130F88E
:1045E0001230194081EA0E0120F81210002080BD1F
:1045F00002460B78487832F823C040F63F71002815
:1046000048F2900008BF43F60F71CFF6FF7008BF65
:1046100000F57F6001EA0C014140002022F82310E0
:10462000704700002DE9F04F82B04B78012B5FD12D
:104630008B690A690F7B934228BF1346002F00F055
:104640007F80CF780C6A022F40F0C2800D7840F650
:104650000F6630F825704FEA450E944206EA0706C9
:1046600048F2B00C40F2128148F2B007CFF6FF7763
:10467000D0373E43A4EB030A20F81E60C1F820A007
:1046800030F81E70B0F850602D017F0600EB050871
:1046900000F1528108EB0604A4F80434D1F814B0F8
:1046A0009DB2002D00F014830E8900EB460606F53E
:1046B00080696E1C4FF0FF3505EB5604C6F34105CB
:1046C000002D4FEA560700F0DF815E46CDE9004835
:1046D00036F8028B5C46CB46012D2BF8048B40F05C
:1046E000D781D946DDF80480A346009C013FDEE275
:1046F0000A7B002A48D0CA78012A00F09F80022A4B
:1047000040F0C080002B40F0AA82B0F850300A7808
:104710000344120103F20447BB5A6FF39F23BB52B9
:104720000B693F2BC0F04E81DC064FEA5316D45B79
:104730004FF0FF3508BF05EB531644EA8626C8E163
:104740001A0400F07381CA88D1F814E000EB420229
:1047500002F580689AB201324FF0FF37C2F341048C
:1047600007EB520C002C4FEA520200F04C817746C6
:1047700037F8025B4646012C26F8045B40F00A81BC
:10478000013ABE46B0463EE18E690A69B31A38BFA7
:1047900000238B61B0F850700B7807444FEA031385
:1047A00007F20C47FD5A38BF32466FF39F253F2A68
:1047B000FD52C0F0CA81D406DC5B4FEA52164FF0BE
:1047C000FF3508BF05EB521644EA8622C7E100BF59
:1047D000E21A0F780A6230F82720B0F850403D0105
:1047E000520605444FEA470E9AB248F2B00C2C44E8
:1047F00000F17E80002AA4F8043400F0D7800B89F1
:104800000132496900EB43034FF0FF34C2F3410525
:1048100003F5806304EB5208002D4FEA520200F0CA
:10482000BC810E4636F8024B1F46012D27F8044B7B
:1048300040F00C81013A31463B46AEE10A698F698E
:10484000BE1A3CBF00263A46002B8E6140F08A819A
:10485000B0F850700B7807441B0107F20447FE5A6A
:104860003F2A6FF39F26FE52C0F0B880D4064FEA6D
:104870005216DC5B4FF0FF3508BF05EB521644EAD9
:10488000862650E1012002B0BDE8F08F48F2B00268
:10489000CFF6FF72303A324320F81E20B0F8502095
:1048A00000EB05131A442304A2F8044400F08280AC
:1048B0000A89496900EB420202F58063A2B2013223
:1048C0004FF0FF34C2F3410504EB5208002D4FEACC
:1048D000520200F082810E4636F8024B1F46012D2F
:1048E00027F8044B40F0BC80013A31463B4674E166
:1048F000002AA4F80C3461D04B890132496900EBDD
:1049000043034FF0FF34C2F3410503F5806304EB2A
:104910005208002D4FEA520200F07F810E4636F811
:10492000024B1F46012D27F8044B40F0A380013AAB
:1049300031463B4671E100BF08EB0605A5F80C3493
:10494000D1F814B09DB2002D00F016824E8900EB14
:10495000460606F580696E1C4FF0FF3505EB5604E0
:10496000C6F34105002D4FEA560700F08F805E46E2
:10497000CDE9004836F8028B5C46CB46012D2BF87A
:10498000048B40F09580D946DDF80480A346009C56
:10499000013FE0E1BEF80250022CA8F8045029D1F2
:1049A00008F108080EF1040E023A2CE040F63F71BF
:1049B000E3E000BF40F63F71DFE000BF40F63F712B
:1049C000DBE000BF002B00F0838003F00106D55B25
:1049D00006EB530645EA862680E000BF002A00F079
:1049E000A18002F00106DD5B06EB520645EA862651
:1049F0009EE000BFBEF804400EF1060EA8F8084085
:104A000008F10C08033ABCF1030F0FD3AEF108070D
:104A1000A8F1100637F8085F043A26F8105F7D8881
:104A2000B580BD883581FD88B581F3D1B0F85020BF
:104A30000978024402EB011248F2B00CA2F80434E7
:104A40004FEA410E40F63F7197E000BF4C88022DBF
:104A50009C8040F09D8008330431023A9DE000BF05
:104A60004C88022D9C8040F0B38008330431023A18
:104A7000B3E000BF4C88022D9C8040F0C980083311
:104A80000431023AC9E000BF5E4610E15E4662E1D1
:104A90006688A346A9F80460DDF80480009C022D16
:104AA00040F0FC8009F108090BF10406023FFEE02A
:104AB0006688A346A9F80460DDF80480009C022DF6
:104AC00040F0408109F108090BF10406023F42E180
:104AD000D65B48F20005CFF6FF752E43D653B0F8EB
:104AE00050703F2B074407F20C47BE5A6FF39F26C6
:104AF000BE520BD3DC06D45B4FEA53164FF0FF35A2
:104B000008BF05EB531644EA8623A2E0002B00F011
:104B10009F8003F00106D55B06EB530345EA832330
:104B20009CE000BFDE5B48F20005CFF6FF752E4328
:104B3000DE53B0F850703F2A074407F20C47FE5A84
:104B40006FF39F26FE52BFF436AE3AB102F0010673
:104B5000DD5B06EB520245EA822202E0DA5B42F4B8
:104B60000042DA5309784FEA410E42F6D071A1F5BE
:104B7000E041A1F5756C43F60F7130F81E2011402D
:104B800081EA0C0120F81E10002002B0BDE8F08F71
:104B90008C8806311C810C33033AB8F1030F03D221
:104BA00040F63F71E9E700BFA1F10804103B00BFE8
:104BB00034F8081F043A23F8101F61889980A188EF
:104BC0001981E188998140F63F71F1D1D5E700BFA5
:104BD0008C8806311C810C33033AB8F1030F03D2E1
:104BE00040F63F71C9E700BFA1F10804103B00BFC8
:104BF00034F8081F043A23F8101F61889980A188AF
:104C00001981E188998140F63F71F1D1B5E700BF84
:104C10008C8806311C810C33033AB8F1030F03D2A0
:104C200040F63F71A9E700BFA1F10804103B00BFA7
:104C300034F8081F043A23F8101F61889980A1886E
:104C40001981E188998140F63F71F1D195E700BF64
:104C5000D35B48F20006CFF6FF763343D353CA69DD
:104C6000002A3FF47FAF0A7844F2400730F8223040
:104C70003B40BB4202D0002B7FF474AF520030F8AF
:104C8000123040F60F773B4048F2B007CFF6FF777F
:104C90003B43103320F8123064E700BFBBF80450E8
:104CA0000BF10606A9F8085009F10C09033F032C83
:104CB0000ED3083EA9F1100536F8084F043F25F839
:104CC000104F7488AC80B4882C81F488AC81F3D107
:104CD0000BEB030600244E61924588BFAAEB030448
:104CE0000C62B0F8502088BF9A4608EB02031FFA06
:104CF0008AF2A3F80CA4CAB14989013200EB410140
:104D00004FF0FF33C2F3410401F5806103EB52031E
:104D1000002C4FEA52026ED036F8027B0D46012C71
:104D200025F8047B06D1013A294664E040F63F713C
:104D300023E700BF36F8025B022C8D8056D1083184
:104D4000023A58E0BBF804500BF10606A9F80850E7
:104D500009F10C09033F032C0ED3083EA9F11005FD
:104D600036F8084F043F25F8104F7488AC80B4889B
:104D70002C81F488AC81F3D10BEB030600244E6147
:104D8000924588BFAAEB03040C62B0F8502088BF9C
:104D90009A4608EB02031FFA8AF2A3F804A4CAB1E8
:104DA0000989013200EB41014FF0FF33C2F34104A6
:104DB00001F5806103EB52034FEA5202CCB336F89F
:104DC000027B0D46012C25F8047B07D1013A2946C8
:104DD0002FE000BF40F63F71CFE600BF36F8025B20
:104DE000022C8D8020D10831023A22E036F8024BA5
:104DF000033A0C810C31032B02D240F63F71BCE622
:104E0000A6F10803A1F1100433F8081F043A24F8AE
:104E1000101F5988A18099882181D988A18140F6E5
:104E20003F71F1D1A9E600BF36F8024B033A0C817D
:104E30000C31032B02D240F63F719EE6A6F1080327
:104E4000A1F1100433F8081F043A24F8101F598800
:104E5000A18099882181D988A18140F63F71F1D143
:104E60008BE6000001460020A1F844004FF43F42C9
:104E70000020A1F84020704741F2FC20C2F200005F
:104E8000FBF780BEB0F844007047000070B500EB3F
:104E90004200022B00F5806441D34FF0FF32C3F390
:104EA0004105580802EB530C55B1224632F8046B09
:104EB0008E46012D2EF8026B08D1013817E000BF95
:104EC0002246BCF1030F14462AD315E0A288022D16
:104ED0004A8005D101F1040E04F10802023806E00F
:104EE000228901F1060E8A8004F10C020338714612
:104EF000BCF1030F144613D332F8106B043821F8B9
:104F0000086B32F80C6C21F8066C32F8086C21F84A
:104F1000046C32F8046C21F8026CEDD114468E4614
:104F2000D8071CBF20888EF8000070BD002904BF80
:104F30008021A0F84C10002070470000B0B5002B75
:104F40003ED000EB420000F5806E581C4FF0FF325F
:104F5000C0F3410302EB500C4FEA5000EBB10A469C
:104F600032F8025B7446012B24F8045B04D101384B
:104F70001146A64611E000BF4A88022BAEF8042075
:104F800004D10EF1080E0431023806E08A88063199
:104F9000AEF808200EF10C0E0338BCF1030F38BF39
:104FA000B0BD0839AEF1100231F8083F043822F8DC
:104FB000103F4B8893808B881381CB889381F3D1EA
:104FC000B0BD0000FEE7000086B040F20044C4F22D
:104FD0000204FBF7EDFBFEF707F8002643F61C0082
:104FE0000496C4F202000168002241F02001016031
:104FF0000168042501F0200105910599016841F03F
:1050000002010160016801F0020105910599016842
:1050100041F0010101600068042100F001000590E9
:1050200005982046FBF7AAFB009501206D46CDE9C7
:105030000106204629460396FBF7CEFA4FF480601E
:10504000CDE90006A4F5806029460296FBF7C4FA74
:10505000FDF738FF40F2E015C2F20005A4F5DE319D
:10506000284640F8201F4FF4E1310C22C0E9011618
:10507000C0E90366C0E90526C661FDF79DFC28B1BD
:10508000EFF3108072B600BFFEE700BF40F20110E0
:10509000C0F201000590A4F5EE307F21C5E90006BD
:1050A00005F10800FF2246C028460096C5E90566BE
:1050B000FCF7C0FF20B1EFF3108072B6FEE700BF2F
:1050C0000020CDE9010040F2E010C2F20000694684
:1050D0000122FDF7DDF828B1EFF3108072B600BFB2
:1050E000FEE700BF40F2E010C2F2000005A9012275
:1050F000FDF726F820B1EFF3108072B6FEE700BF8F
:1051000040F2E010C2F2000000210022FCF73CFF58
:1051100020B1EFF3108072B6FEE700BF40F2D86016
:10512000C4F247200121016040F2E010C2F2000009
:10513000FCF780FF45F2FD1112A0C0F60001FDF75B
:1051400001FF68B9204604210122FBF717FB4FF449
:105150004870FBF72DFA204604210022FBF70EFBD6
:1051600045F2FD14C0F6000408A02146FDF7EAFE52
:1051700009A013A1FDF7E6FE14A02146FDF7E2FE0B
:10518000FEE700BF41540D0A0000000041542B43CC
:10519000475245473F0D0A0041542B4350534D534E
:1051A0003D312C2C2C223030313131303030222C1A
:1051B000223030303030303031220D0A0000000013
:1051C000454E5445522050534D00000041542B434E
:1051D00047434F4E545244500D0A00000000000057
:1051E0000000000001020304060708090000000097
:1051F00001020304030406080C101820304F4B0072
:10520000205200080000002080010000300100084A
:10521000E052000880010020701A00008C01000894
:10522000321032011399361B08D1041AE104130D10
:10523000371B083D041A750C1AA9041468FF1F1BBC
:10524000B93318190413953442081A510C138D32CE
:105250001B08DD04C11A99181A89041AA9041A79BD
:1052600004140902431302011DC0320904691A0221
:105270000B13052416100105240110090104240252
:105280000205240617010705820308151009040109
:1052900033020A2E0705010240072A810711093748
:1052A00044113A02441907112B0A0606112A40EC50
:1052B0002B0907500A3B04941A12171302021E40CE
:1052C000830440574D1B0203591339041B0835044E
:1052D0001A31041A6504071E040309041A030000A6
:04000005080000F5FA
:00000001FF
